{
  "_format": "hh-sol-artifact-1",
  "contractName": "CuratorEditions",
  "sourceName": "contracts/CuratorEditions.sol",
  "abi": [
    {
      "inputs": [
        {
          "internalType": "address",
          "name": "_singleEditionMintableCreatorAddress",
          "type": "address"
        },
        {
          "internalType": "address",
          "name": "_paymentSplitterFactoryAddress",
          "type": "address"
        }
      ],
      "stateMutability": "nonpayable",
      "type": "constructor"
    },
    {
      "anonymous": false,
      "inputs": [
        {
          "indexed": false,
          "internalType": "address",
          "name": "editionContractAddress",
          "type": "address"
        },
        {
          "indexed": false,
          "internalType": "uint256",
          "name": "editionId",
          "type": "uint256"
        }
      ],
      "name": "CreatedEdition",
      "type": "event"
    },
    {
      "anonymous": false,
      "inputs": [
        {
          "indexed": false,
          "internalType": "uint256",
          "name": "editionId",
          "type": "uint256"
        },
        {
          "indexed": false,
          "internalType": "uint256",
          "name": "price",
          "type": "uint256"
        },
        {
          "indexed": false,
          "internalType": "address",
          "name": "owner",
          "type": "address"
        }
      ],
      "name": "EditionSold",
      "type": "event"
    },
    {
      "anonymous": false,
      "inputs": [
        {
          "indexed": false,
          "internalType": "uint256",
          "name": "editionId",
          "type": "uint256"
        },
        {
          "indexed": false,
          "internalType": "uint256",
          "name": "amount",
          "type": "uint256"
        }
      ],
      "name": "PriceChanged",
      "type": "event"
    },
    {
      "inputs": [],
      "name": "NATIVE_CURRENCY",
      "outputs": [
        {
          "internalType": "address",
          "name": "",
          "type": "address"
        }
      ],
      "stateMutability": "view",
      "type": "function"
    },
    {
      "inputs": [
        {
          "components": [
            {
              "internalType": "string",
              "name": "name",
              "type": "string"
            },
            {
              "internalType": "string",
              "name": "symbol",
              "type": "string"
            },
            {
              "internalType": "string",
              "name": "description",
              "type": "string"
            },
            {
              "internalType": "string",
              "name": "animationUrl",
              "type": "string"
            },
            {
              "internalType": "bytes32",
              "name": "animationHash",
              "type": "bytes32"
            },
            {
              "internalType": "string",
              "name": "imageUrl",
              "type": "string"
            },
            {
              "internalType": "bytes32",
              "name": "imageHash",
              "type": "bytes32"
            },
            {
              "internalType": "uint256",
              "name": "editionSize",
              "type": "uint256"
            },
            {
              "internalType": "uint256",
              "name": "royaltyBPS",
              "type": "uint256"
            },
            {
              "internalType": "uint256",
              "name": "salePrice",
              "type": "uint256"
            },
            {
              "internalType": "address",
              "name": "owner",
              "type": "address"
            }
          ],
          "internalType": "struct CuratorEditions.EditionData",
          "name": "_editionData",
          "type": "tuple"
        },
        {
          "components": [
            {
              "internalType": "string",
              "name": "title",
              "type": "string"
            },
            {
              "internalType": "address[]",
              "name": "payees",
              "type": "address[]"
            },
            {
              "internalType": "uint256[]",
              "name": "shares",
              "type": "uint256[]"
            }
          ],
          "internalType": "struct CuratorEditions.SplitData",
          "name": "_splitData",
          "type": "tuple"
        }
      ],
      "name": "createCuratorEdition",
      "outputs": [
        {
          "internalType": "uint256",
          "name": "",
          "type": "uint256"
        }
      ],
      "stateMutability": "nonpayable",
      "type": "function"
    },
    {
      "inputs": [
        {
          "internalType": "uint256",
          "name": "",
          "type": "uint256"
        }
      ],
      "name": "editionIdToSalePrice",
      "outputs": [
        {
          "internalType": "uint256",
          "name": "",
          "type": "uint256"
        }
      ],
      "stateMutability": "view",
      "type": "function"
    },
    {
      "inputs": [
        {
          "internalType": "uint256",
          "name": "",
          "type": "uint256"
        }
      ],
      "name": "editionIdToSplitter",
      "outputs": [
        {
          "internalType": "address",
          "name": "",
          "type": "address"
        }
      ],
      "stateMutability": "view",
      "type": "function"
    },
    {
      "inputs": [
        {
          "internalType": "uint256",
          "name": "_editionId",
          "type": "uint256"
        }
      ],
      "name": "getBalance",
      "outputs": [
        {
          "internalType": "uint256",
          "name": "",
          "type": "uint256"
        }
      ],
      "stateMutability": "view",
      "type": "function"
    },
    {
      "inputs": [
        {
          "internalType": "uint256",
          "name": "_editionId",
          "type": "uint256"
        }
      ],
      "name": "getEditionAddress",
      "outputs": [
        {
          "internalType": "address",
          "name": "",
          "type": "address"
        }
      ],
      "stateMutability": "view",
      "type": "function"
    },
    {
      "inputs": [],
      "name": "paymentSplitterFactoryAddress",
      "outputs": [
        {
          "internalType": "address",
          "name": "",
          "type": "address"
        }
      ],
      "stateMutability": "view",
      "type": "function"
    },
    {
      "inputs": [
        {
          "internalType": "uint256",
          "name": "_editionId",
          "type": "uint256"
        }
      ],
      "name": "purchase",
      "outputs": [
        {
          "internalType": "uint256",
          "name": "",
          "type": "uint256"
        }
      ],
      "stateMutability": "payable",
      "type": "function"
    },
    {
      "inputs": [
        {
          "internalType": "uint256",
          "name": "_editionId",
          "type": "uint256"
        },
        {
          "internalType": "uint256",
          "name": "_salePrice",
          "type": "uint256"
        }
      ],
      "name": "setSalePrice",
      "outputs": [],
      "stateMutability": "nonpayable",
      "type": "function"
    },
    {
      "inputs": [],
      "name": "singleEditionMintableCreatorAddress",
      "outputs": [
        {
          "internalType": "address",
          "name": "",
          "type": "address"
        }
      ],
      "stateMutability": "view",
      "type": "function"
    },
    {
      "inputs": [
        {
          "internalType": "uint256",
          "name": "_editionId",
          "type": "uint256"
        }
      ],
      "name": "withdraw",
      "outputs": [],
      "stateMutability": "nonpayable",
      "type": "function"
    }
  ],
  "bytecode": "0x60806040523480156200001157600080fd5b5060405162001e8d38038062001e8d8339818101604052810190620000379190620000d7565b816000806101000a81548173ffffffffffffffffffffffffffffffffffffffff021916908373ffffffffffffffffffffffffffffffffffffffff16021790555080600160006101000a81548173ffffffffffffffffffffffffffffffffffffffff021916908373ffffffffffffffffffffffffffffffffffffffff160217905550505062000171565b600081519050620000d18162000157565b92915050565b60008060408385031215620000f157620000f062000152565b5b60006200010185828601620000c0565b92505060206200011485828601620000c0565b9150509250929050565b60006200012b8262000132565b9050919050565b600073ffffffffffffffffffffffffffffffffffffffff82169050919050565b600080fd5b62000162816200011e565b81146200016e57600080fd5b50565b611d0c80620001816000396000f3fe60806040526004361061009c5760003560e01c806349f426501161006457806349f42650146101aa578063519e9dca146101d55780636b684cb814610200578063def456691461022b578063efef39a114610268578063f1787776146102985761009c565b8063053992c5146100a157806317c9cd27146100ca5780631e010439146101075780632e1a7d4d146101445780633daebf881461016d575b600080fd5b3480156100ad57600080fd5b506100c860048036038101906100c39190611404565b6102d5565b005b3480156100d657600080fd5b506100f160048036038101906100ec9190611332565b6104ca565b6040516100fe91906118c5565b60405180910390f35b34801561011357600080fd5b5061012e600480360381019061012991906113aa565b61089a565b60405161013b91906118c5565b60405180910390f35b34801561015057600080fd5b5061016b600480360381019061016691906113aa565b610962565b005b34801561017957600080fd5b50610194600480360381019061018f91906113aa565b610a06565b6040516101a191906118c5565b60405180910390f35b3480156101b657600080fd5b506101bf610a1e565b6040516101cc9190611696565b60405180910390f35b3480156101e157600080fd5b506101ea610a23565b6040516101f79190611696565b60405180910390f35b34801561020c57600080fd5b50610215610a49565b6040516102229190611696565b60405180910390f35b34801561023757600080fd5b50610252600480360381019061024d91906113aa565b610a6d565b60405161025f9190611696565b60405180910390f35b610282600480360381019061027d91906113aa565b610aa0565b60405161028f91906118c5565b60405180910390f35b3480156102a457600080fd5b506102bf60048036038101906102ba91906113aa565b610da7565b6040516102cc9190611696565b60405180910390f35b60008060009054906101000a900473ffffffffffffffffffffffffffffffffffffffff16905060008173ffffffffffffffffffffffffffffffffffffffff1663ac52edfd856040518263ffffffff1660e01b815260040161033691906118c5565b60206040518083038186803b15801561034e57600080fd5b505afa158015610362573d6000803e3d6000fd5b505050506040513d601f19601f820116820180604052508101906103869190611305565b90508073ffffffffffffffffffffffffffffffffffffffff16638da5cb5b6040518163ffffffff1660e01b815260040160206040518083038186803b1580156103ce57600080fd5b505afa1580156103e2573d6000803e3d6000fd5b505050506040513d601f19601f8201168201806040525081019061040691906112d8565b73ffffffffffffffffffffffffffffffffffffffff163373ffffffffffffffffffffffffffffffffffffffff1614610473576040517f08c379a000000000000000000000000000000000000000000000000000000000815260040161046a90611885565b60405180910390fd5b8260036000868152602001908152602001600020819055507f8aa4fa52648a6d15edce8a179c792c86f3719d0cc3c572cf90f91948f0f2cb6884846040516104bc9291906118e0565b60405180910390a150505050565b60008060008054906101000a900473ffffffffffffffffffffffffffffffffffffffff16905060008173ffffffffffffffffffffffffffffffffffffffff16636606648d86600001518760200151886040015189606001518a608001518b60a001518c60c001518d60e001518e610100015160006040518b63ffffffff1660e01b81526004016105639a99989796959493929190611786565b602060405180830381600087803b15801561057d57600080fd5b505af1158015610591573d6000803e3d6000fd5b505050506040513d601f19601f820116820180604052508101906105b591906113d7565b90506000600160009054906101000a900473ffffffffffffffffffffffffffffffffffffffff1673ffffffffffffffffffffffffffffffffffffffff1663838e970c338760000151886020015189604001516040518563ffffffff1660e01b81526004016106269493929190611703565b602060405180830381600087803b15801561064057600080fd5b505af1158015610654573d6000803e3d6000fd5b505050506040513d601f19601f8201168201806040525081019061067891906112d8565b905060008373ffffffffffffffffffffffffffffffffffffffff1663ac52edfd846040518263ffffffff1660e01b81526004016106b591906118c5565b60206040518083038186803b1580156106cd57600080fd5b505afa1580156106e1573d6000803e3d6000fd5b505050506040513d601f19601f820116820180604052508101906107059190611305565b90508073ffffffffffffffffffffffffffffffffffffffff166329ec16dd3060016040518363ffffffff1660e01b81526004016107439291906116da565b600060405180830381600087803b15801561075d57600080fd5b505af1158015610771573d6000803e3d6000fd5b505050508073ffffffffffffffffffffffffffffffffffffffff1663f2fde38b8861014001516040518263ffffffff1660e01b81526004016107b39190611696565b600060405180830381600087803b1580156107cd57600080fd5b505af11580156107e1573d6000803e3d6000fd5b50505050816002600085815260200190815260200160002060006101000a81548173ffffffffffffffffffffffffffffffffffffffff021916908373ffffffffffffffffffffffffffffffffffffffff16021790555086610120015160036000858152602001908152602001600020819055507f3e3a65041d8e144eecb9f28b56df83d04a8bb2c5f058212bb1f70c65f8f953e8818460405161088592919061175d565b60405180910390a18294505050505092915050565b60006002600083815260200190815260200160002060009054906101000a900473ffffffffffffffffffffffffffffffffffffffff1673ffffffffffffffffffffffffffffffffffffffff1663d4fac45d6000336040518363ffffffff1660e01b815260040161090b9291906116b1565b60206040518083038186803b15801561092357600080fd5b505afa158015610937573d6000803e3d6000fd5b505050506040513d601f19601f8201168201806040525081019061095b91906113d7565b9050919050565b6002600082815260200190815260200160002060009054906101000a900473ffffffffffffffffffffffffffffffffffffffff1673ffffffffffffffffffffffffffffffffffffffff166348b750446000336040518363ffffffff1660e01b81526004016109d19291906116b1565b600060405180830381600087803b1580156109eb57600080fd5b505af11580156109ff573d6000803e3d6000fd5b5050505050565b60036020528060005260406000206000915090505481565b600081565b600160009054906101000a900473ffffffffffffffffffffffffffffffffffffffff1681565b60008054906101000a900473ffffffffffffffffffffffffffffffffffffffff1681565b60026020528060005260406000206000915054906101000a900473ffffffffffffffffffffffffffffffffffffffff1681565b6000806002600084815260200190815260200160002060009054906101000a900473ffffffffffffffffffffffffffffffffffffffff16905060006003600085815260200190815260200160002054905060008111610b34576040517f08c379a0000000000000000000000000000000000000000000000000000000008152600401610b2b906118a5565b60405180910390fd5b803414610b76576040517f08c379a0000000000000000000000000000000000000000000000000000000008152600401610b6d90611865565b60405180910390fd5b60008060009054906101000a900473ffffffffffffffffffffffffffffffffffffffff1673ffffffffffffffffffffffffffffffffffffffff1663ac52edfd866040518263ffffffff1660e01b8152600401610bd291906118c5565b60206040518083038186803b158015610bea57600080fd5b505afa158015610bfe573d6000803e3d6000fd5b505050506040513d601f19601f82011682018060405250810190610c229190611305565b905060008173ffffffffffffffffffffffffffffffffffffffff1663a66ff0af336040518263ffffffff1660e01b8152600401610c5f9190611696565b602060405180830381600087803b158015610c7957600080fd5b505af1158015610c8d573d6000803e3d6000fd5b505050506040513d601f19601f82011682018060405250810190610cb191906113d7565b90507fb12a38f2cd7176b8b381b6ee2ce1d59867557816d9aafbcb9420b74010c828f5868433604051610ce693929190611909565b60405180910390a160008473ffffffffffffffffffffffffffffffffffffffff1634604051610d1490611681565b60006040518083038185875af1925050503d8060008114610d51576040519150601f19603f3d011682016040523d82523d6000602084013e610d56565b606091505b5050905080610d9a576040517f08c379a0000000000000000000000000000000000000000000000000000000008152600401610d9190611845565b60405180910390fd5b8195505050505050919050565b60008060008054906101000a900473ffffffffffffffffffffffffffffffffffffffff1690508073ffffffffffffffffffffffffffffffffffffffff1663ac52edfd846040518263ffffffff1660e01b8152600401610e0691906118c5565b60206040518083038186803b158015610e1e57600080fd5b505afa158015610e32573d6000803e3d6000fd5b505050506040513d601f19601f82011682018060405250810190610e569190611305565b915050919050565b6000610e71610e6c84611965565b611940565b90508083825260208201905082856020860282011115610e9457610e93611bae565b5b60005b85811015610ec45781610eaa8882610f80565b845260208401935060208301925050600181019050610e97565b5050509392505050565b6000610ee1610edc84611991565b611940565b90508083825260208201905082856020860282011115610f0457610f03611bae565b5b60005b85811015610f345781610f1a88826112ae565b845260208401935060208301925050600181019050610f07565b5050509392505050565b6000610f51610f4c846119bd565b611940565b905082815260208101848484011115610f6d57610f6c611bb3565b5b610f78848285611afd565b509392505050565b600081359050610f8f81611c7a565b92915050565b600081519050610fa481611c7a565b92915050565b600082601f830112610fbf57610fbe611b9f565b5b8135610fcf848260208601610e5e565b91505092915050565b600082601f830112610fed57610fec611b9f565b5b8135610ffd848260208601610ece565b91505092915050565b60008135905061101581611c91565b92915050565b60008151905061102a81611ca8565b92915050565b600082601f83011261104557611044611b9f565b5b8135611055848260208601610f3e565b91505092915050565b6000610160828403121561107557611074611ba4565b5b611080610160611940565b9050600082013567ffffffffffffffff8111156110a05761109f611ba9565b5b6110ac84828501611030565b600083015250602082013567ffffffffffffffff8111156110d0576110cf611ba9565b5b6110dc84828501611030565b602083015250604082013567ffffffffffffffff811115611100576110ff611ba9565b5b61110c84828501611030565b604083015250606082013567ffffffffffffffff8111156111305761112f611ba9565b5b61113c84828501611030565b606083015250608061115084828501611006565b60808301525060a082013567ffffffffffffffff81111561117457611173611ba9565b5b61118084828501611030565b60a08301525060c061119484828501611006565b60c08301525060e06111a8848285016112ae565b60e0830152506101006111bd848285016112ae565b610100830152506101206111d3848285016112ae565b610120830152506101406111e984828501610f80565b6101408301525092915050565b60006060828403121561120c5761120b611ba4565b5b6112166060611940565b9050600082013567ffffffffffffffff81111561123657611235611ba9565b5b61124284828501611030565b600083015250602082013567ffffffffffffffff81111561126657611265611ba9565b5b61127284828501610faa565b602083015250604082013567ffffffffffffffff81111561129657611295611ba9565b5b6112a284828501610fd8565b60408301525092915050565b6000813590506112bd81611cbf565b92915050565b6000815190506112d281611cbf565b92915050565b6000602082840312156112ee576112ed611bbd565b5b60006112fc84828501610f95565b91505092915050565b60006020828403121561131b5761131a611bbd565b5b60006113298482850161101b565b91505092915050565b6000806040838503121561134957611348611bbd565b5b600083013567ffffffffffffffff81111561136757611366611bb8565b5b6113738582860161105e565b925050602083013567ffffffffffffffff81111561139457611393611bb8565b5b6113a0858286016111f6565b9150509250929050565b6000602082840312156113c0576113bf611bbd565b5b60006113ce848285016112ae565b91505092915050565b6000602082840312156113ed576113ec611bbd565b5b60006113fb848285016112c3565b91505092915050565b6000806040838503121561141b5761141a611bbd565b5b6000611429858286016112ae565b925050602061143a858286016112ae565b9150509250929050565b60006114508383611474565b60208301905092915050565b60006114688383611663565b60208301905092915050565b61147d81611a87565b82525050565b61148c81611a87565b82525050565b600061149d82611a0e565b6114a78185611a49565b93506114b2836119ee565b8060005b838110156114e35781516114ca8882611444565b97506114d583611a2f565b9250506001810190506114b6565b5085935050505092915050565b60006114fb82611a19565b6115058185611a5a565b9350611510836119fe565b8060005b83811015611541578151611528888261145c565b975061153383611a3c565b925050600181019050611514565b5085935050505092915050565b61155781611a99565b82525050565b61156681611aa5565b82525050565b61157581611aeb565b82525050565b600061158682611a24565b6115908185611a76565b93506115a0818560208601611b0c565b6115a981611bc2565b840191505092915050565b60006115c1600e83611a76565b91506115cc82611bd3565b602082019050919050565b60006115e4600d83611a76565b91506115ef82611bfc565b602082019050919050565b6000611607600983611a76565b915061161282611c25565b602082019050919050565b600061162a600083611a6b565b915061163582611c4e565b600082019050919050565b600061164d600c83611a76565b915061165882611c51565b602082019050919050565b61166c81611ae1565b82525050565b61167b81611ae1565b82525050565b600061168c8261161d565b9150819050919050565b60006020820190506116ab6000830184611483565b92915050565b60006040820190506116c66000830185611483565b6116d36020830184611483565b9392505050565b60006040820190506116ef6000830185611483565b6116fc602083018461154e565b9392505050565b60006080820190506117186000830187611483565b818103602083015261172a818661157b565b9050818103604083015261173e8185611492565b9050818103606083015261175281846114f0565b905095945050505050565b60006040820190506117726000830185611483565b61177f6020830184611672565b9392505050565b60006101408201905081810360008301526117a1818d61157b565b905081810360208301526117b5818c61157b565b905081810360408301526117c9818b61157b565b905081810360608301526117dd818a61157b565b90506117ec608083018961155d565b81810360a08301526117fe818861157b565b905061180d60c083018761155d565b61181a60e0830186611672565b611828610100830185611672565b61183661012083018461156c565b9b9a5050505050505050505050565b6000602082019050818103600083015261185e816115b4565b9050919050565b6000602082019050818103600083015261187e816115d7565b9050919050565b6000602082019050818103600083015261189e816115fa565b9050919050565b600060208201905081810360008301526118be81611640565b9050919050565b60006020820190506118da6000830184611672565b92915050565b60006040820190506118f56000830185611672565b6119026020830184611672565b9392505050565b600060608201905061191e6000830186611672565b61192b6020830185611672565b6119386040830184611483565b949350505050565b600061194a61195b565b90506119568282611b3f565b919050565b6000604051905090565b600067ffffffffffffffff8211156119805761197f611b70565b5b602082029050602081019050919050565b600067ffffffffffffffff8211156119ac576119ab611b70565b5b602082029050602081019050919050565b600067ffffffffffffffff8211156119d8576119d7611b70565b5b6119e182611bc2565b9050602081019050919050565b6000819050602082019050919050565b6000819050602082019050919050565b600081519050919050565b600081519050919050565b600081519050919050565b6000602082019050919050565b6000602082019050919050565b600082825260208201905092915050565b600082825260208201905092915050565b600081905092915050565b600082825260208201905092915050565b6000611a9282611ac1565b9050919050565b60008115159050919050565b6000819050919050565b6000611aba82611a87565b9050919050565b600073ffffffffffffffffffffffffffffffffffffffff82169050919050565b6000819050919050565b6000611af682611ae1565b9050919050565b82818337600083830152505050565b60005b83811015611b2a578082015181840152602081019050611b0f565b83811115611b39576000848401525b50505050565b611b4882611bc2565b810181811067ffffffffffffffff82111715611b6757611b66611b70565b5b80604052505050565b7f4e487b7100000000000000000000000000000000000000000000000000000000600052604160045260246000fd5b600080fd5b600080fd5b600080fd5b600080fd5b600080fd5b600080fd5b600080fd5b6000601f19601f8301169050919050565b7f53504c49545445525f4552524f52000000000000000000000000000000000000600082015250565b7f494e56414c49445f505249434500000000000000000000000000000000000000600082015250565b7f464f5242494444454e0000000000000000000000000000000000000000000000600082015250565b50565b7f4e4f545f464f525f53414c450000000000000000000000000000000000000000600082015250565b611c8381611a87565b8114611c8e57600080fd5b50565b611c9a81611aa5565b8114611ca557600080fd5b50565b611cb181611aaf565b8114611cbc57600080fd5b50565b611cc881611ae1565b8114611cd357600080fd5b5056fea26469706673582212200efa07d967ed15ed067c6200fd6e4e5722ead019939ea1d9e047a6a4537de9a764736f6c63430008060033",
  "linkReferences": {},
  "deployedLinkReferences": {}
}