{
  "_format": "hh-sol-artifact-1",
  "contractName": "SingleEditionMintable",
  "sourceName": "contracts/SingleEditionMintable.sol",
  "abi": [
    {
      "inputs": [
        {
          "internalType": "contract SharedNFTLogic",
          "name": "_sharedNFTLogic",
          "type": "address"
        }
      ],
      "stateMutability": "nonpayable",
      "type": "constructor"
    },
    {
      "anonymous": false,
      "inputs": [
        {
          "indexed": true,
          "internalType": "address",
          "name": "owner",
          "type": "address"
        },
        {
          "indexed": true,
          "internalType": "address",
          "name": "approved",
          "type": "address"
        },
        {
          "indexed": true,
          "internalType": "uint256",
          "name": "tokenId",
          "type": "uint256"
        }
      ],
      "name": "Approval",
      "type": "event"
    },
    {
      "anonymous": false,
      "inputs": [
        {
          "indexed": true,
          "internalType": "address",
          "name": "owner",
          "type": "address"
        },
        {
          "indexed": true,
          "internalType": "address",
          "name": "operator",
          "type": "address"
        },
        {
          "indexed": false,
          "internalType": "bool",
          "name": "approved",
          "type": "bool"
        }
      ],
      "name": "ApprovalForAll",
      "type": "event"
    },
    {
      "anonymous": false,
      "inputs": [
        {
          "indexed": false,
          "internalType": "uint256",
          "name": "price",
          "type": "uint256"
        },
        {
          "indexed": false,
          "internalType": "address",
          "name": "owner",
          "type": "address"
        }
      ],
      "name": "EditionSold",
      "type": "event"
    },
    {
      "anonymous": false,
      "inputs": [
        {
          "indexed": false,
          "internalType": "uint256",
          "name": "amount",
          "type": "uint256"
        }
      ],
      "name": "FundsWithdrawn",
      "type": "event"
    },
    {
      "anonymous": false,
      "inputs": [
        {
          "indexed": true,
          "internalType": "address",
          "name": "previousOwner",
          "type": "address"
        },
        {
          "indexed": true,
          "internalType": "address",
          "name": "newOwner",
          "type": "address"
        }
      ],
      "name": "OwnershipTransferred",
      "type": "event"
    },
    {
      "anonymous": false,
      "inputs": [
        {
          "indexed": false,
          "internalType": "uint256",
          "name": "amount",
          "type": "uint256"
        }
      ],
      "name": "PriceChanged",
      "type": "event"
    },
    {
      "anonymous": false,
      "inputs": [
        {
          "indexed": true,
          "internalType": "address",
          "name": "from",
          "type": "address"
        },
        {
          "indexed": true,
          "internalType": "address",
          "name": "to",
          "type": "address"
        },
        {
          "indexed": true,
          "internalType": "uint256",
          "name": "tokenId",
          "type": "uint256"
        }
      ],
      "name": "Transfer",
      "type": "event"
    },
    {
      "inputs": [],
      "name": "animationHash",
      "outputs": [
        {
          "internalType": "bytes32",
          "name": "",
          "type": "bytes32"
        }
      ],
      "stateMutability": "view",
      "type": "function"
    },
    {
      "inputs": [],
      "name": "animationUrl",
      "outputs": [
        {
          "internalType": "string",
          "name": "",
          "type": "string"
        }
      ],
      "stateMutability": "view",
      "type": "function"
    },
    {
      "inputs": [
        {
          "internalType": "address",
          "name": "to",
          "type": "address"
        },
        {
          "internalType": "uint256",
          "name": "tokenId",
          "type": "uint256"
        }
      ],
      "name": "approve",
      "outputs": [],
      "stateMutability": "nonpayable",
      "type": "function"
    },
    {
      "inputs": [
        {
          "internalType": "address",
          "name": "owner",
          "type": "address"
        }
      ],
      "name": "balanceOf",
      "outputs": [
        {
          "internalType": "uint256",
          "name": "",
          "type": "uint256"
        }
      ],
      "stateMutability": "view",
      "type": "function"
    },
    {
      "inputs": [
        {
          "internalType": "uint256",
          "name": "tokenId",
          "type": "uint256"
        }
      ],
      "name": "burn",
      "outputs": [],
      "stateMutability": "nonpayable",
      "type": "function"
    },
    {
      "inputs": [],
      "name": "description",
      "outputs": [
        {
          "internalType": "string",
          "name": "",
          "type": "string"
        }
      ],
      "stateMutability": "view",
      "type": "function"
    },
    {
      "inputs": [],
      "name": "editionSize",
      "outputs": [
        {
          "internalType": "uint256",
          "name": "",
          "type": "uint256"
        }
      ],
      "stateMutability": "view",
      "type": "function"
    },
    {
      "inputs": [
        {
          "internalType": "uint256",
          "name": "tokenId",
          "type": "uint256"
        }
      ],
      "name": "getApproved",
      "outputs": [
        {
          "internalType": "address",
          "name": "",
          "type": "address"
        }
      ],
      "stateMutability": "view",
      "type": "function"
    },
    {
      "inputs": [],
      "name": "getURIs",
      "outputs": [
        {
          "internalType": "string",
          "name": "",
          "type": "string"
        },
        {
          "internalType": "bytes32",
          "name": "",
          "type": "bytes32"
        },
        {
          "internalType": "string",
          "name": "",
          "type": "string"
        },
        {
          "internalType": "bytes32",
          "name": "",
          "type": "bytes32"
        }
      ],
      "stateMutability": "view",
      "type": "function"
    },
    {
      "inputs": [],
      "name": "imageHash",
      "outputs": [
        {
          "internalType": "bytes32",
          "name": "",
          "type": "bytes32"
        }
      ],
      "stateMutability": "view",
      "type": "function"
    },
    {
      "inputs": [],
      "name": "imageUrl",
      "outputs": [
        {
          "internalType": "string",
          "name": "",
          "type": "string"
        }
      ],
      "stateMutability": "view",
      "type": "function"
    },
    {
      "inputs": [
        {
          "internalType": "address",
          "name": "_owner",
          "type": "address"
        },
        {
          "internalType": "string",
          "name": "_name",
          "type": "string"
        },
        {
          "internalType": "string",
          "name": "_symbol",
          "type": "string"
        },
        {
          "internalType": "string",
          "name": "_description",
          "type": "string"
        },
        {
          "internalType": "string",
          "name": "_animationUrl",
          "type": "string"
        },
        {
          "internalType": "bytes32",
          "name": "_animationHash",
          "type": "bytes32"
        },
        {
          "internalType": "string",
          "name": "_imageUrl",
          "type": "string"
        },
        {
          "internalType": "bytes32",
          "name": "_imageHash",
          "type": "bytes32"
        },
        {
          "internalType": "uint256",
          "name": "_editionSize",
          "type": "uint256"
        },
        {
          "internalType": "uint256",
          "name": "_royaltyBPS",
          "type": "uint256"
        },
        {
          "internalType": "uint256",
          "name": "_salePrice",
          "type": "uint256"
        }
      ],
      "name": "initialize",
      "outputs": [],
      "stateMutability": "nonpayable",
      "type": "function"
    },
    {
      "inputs": [
        {
          "internalType": "address",
          "name": "owner",
          "type": "address"
        },
        {
          "internalType": "address",
          "name": "operator",
          "type": "address"
        }
      ],
      "name": "isApprovedForAll",
      "outputs": [
        {
          "internalType": "bool",
          "name": "",
          "type": "bool"
        }
      ],
      "stateMutability": "view",
      "type": "function"
    },
    {
      "inputs": [
        {
          "internalType": "address",
          "name": "to",
          "type": "address"
        }
      ],
      "name": "mintEdition",
      "outputs": [
        {
          "internalType": "uint256",
          "name": "",
          "type": "uint256"
        }
      ],
      "stateMutability": "nonpayable",
      "type": "function"
    },
    {
      "inputs": [
        {
          "internalType": "address[]",
          "name": "recipients",
          "type": "address[]"
        }
      ],
      "name": "mintEditions",
      "outputs": [
        {
          "internalType": "uint256",
          "name": "",
          "type": "uint256"
        }
      ],
      "stateMutability": "nonpayable",
      "type": "function"
    },
    {
      "inputs": [],
      "name": "name",
      "outputs": [
        {
          "internalType": "string",
          "name": "",
          "type": "string"
        }
      ],
      "stateMutability": "view",
      "type": "function"
    },
    {
      "inputs": [],
      "name": "numberCanMint",
      "outputs": [
        {
          "internalType": "uint256",
          "name": "",
          "type": "uint256"
        }
      ],
      "stateMutability": "view",
      "type": "function"
    },
    {
      "inputs": [],
      "name": "owner",
      "outputs": [
        {
          "internalType": "address",
          "name": "",
          "type": "address"
        }
      ],
      "stateMutability": "view",
      "type": "function"
    },
    {
      "inputs": [
        {
          "internalType": "uint256",
          "name": "tokenId",
          "type": "uint256"
        }
      ],
      "name": "ownerOf",
      "outputs": [
        {
          "internalType": "address",
          "name": "",
          "type": "address"
        }
      ],
      "stateMutability": "view",
      "type": "function"
    },
    {
      "inputs": [],
      "name": "purchase",
      "outputs": [
        {
          "internalType": "uint256",
          "name": "",
          "type": "uint256"
        }
      ],
      "stateMutability": "payable",
      "type": "function"
    },
    {
      "inputs": [],
      "name": "renounceOwnership",
      "outputs": [],
      "stateMutability": "nonpayable",
      "type": "function"
    },
    {
      "inputs": [
        {
          "internalType": "uint256",
          "name": "",
          "type": "uint256"
        },
        {
          "internalType": "uint256",
          "name": "_salePrice",
          "type": "uint256"
        }
      ],
      "name": "royaltyInfo",
      "outputs": [
        {
          "internalType": "address",
          "name": "receiver",
          "type": "address"
        },
        {
          "internalType": "uint256",
          "name": "royaltyAmount",
          "type": "uint256"
        }
      ],
      "stateMutability": "view",
      "type": "function"
    },
    {
      "inputs": [
        {
          "internalType": "address",
          "name": "from",
          "type": "address"
        },
        {
          "internalType": "address",
          "name": "to",
          "type": "address"
        },
        {
          "internalType": "uint256",
          "name": "tokenId",
          "type": "uint256"
        }
      ],
      "name": "safeTransferFrom",
      "outputs": [],
      "stateMutability": "nonpayable",
      "type": "function"
    },
    {
      "inputs": [
        {
          "internalType": "address",
          "name": "from",
          "type": "address"
        },
        {
          "internalType": "address",
          "name": "to",
          "type": "address"
        },
        {
          "internalType": "uint256",
          "name": "tokenId",
          "type": "uint256"
        },
        {
          "internalType": "bytes",
          "name": "_data",
          "type": "bytes"
        }
      ],
      "name": "safeTransferFrom",
      "outputs": [],
      "stateMutability": "nonpayable",
      "type": "function"
    },
    {
      "inputs": [],
      "name": "salePrice",
      "outputs": [
        {
          "internalType": "uint256",
          "name": "",
          "type": "uint256"
        }
      ],
      "stateMutability": "view",
      "type": "function"
    },
    {
      "inputs": [
        {
          "internalType": "address",
          "name": "operator",
          "type": "address"
        },
        {
          "internalType": "bool",
          "name": "approved",
          "type": "bool"
        }
      ],
      "name": "setApprovalForAll",
      "outputs": [],
      "stateMutability": "nonpayable",
      "type": "function"
    },
    {
      "inputs": [
        {
          "internalType": "address",
          "name": "minter",
          "type": "address"
        },
        {
          "internalType": "bool",
          "name": "allowed",
          "type": "bool"
        }
      ],
      "name": "setApprovedMinter",
      "outputs": [],
      "stateMutability": "nonpayable",
      "type": "function"
    },
    {
      "inputs": [
        {
          "internalType": "uint256",
          "name": "_salePrice",
          "type": "uint256"
        }
      ],
      "name": "setSalePrice",
      "outputs": [],
      "stateMutability": "nonpayable",
      "type": "function"
    },
    {
      "inputs": [
        {
          "internalType": "bytes4",
          "name": "interfaceId",
          "type": "bytes4"
        }
      ],
      "name": "supportsInterface",
      "outputs": [
        {
          "internalType": "bool",
          "name": "",
          "type": "bool"
        }
      ],
      "stateMutability": "view",
      "type": "function"
    },
    {
      "inputs": [],
      "name": "symbol",
      "outputs": [
        {
          "internalType": "string",
          "name": "",
          "type": "string"
        }
      ],
      "stateMutability": "view",
      "type": "function"
    },
    {
      "inputs": [
        {
          "internalType": "uint256",
          "name": "tokenId",
          "type": "uint256"
        }
      ],
      "name": "tokenURI",
      "outputs": [
        {
          "internalType": "string",
          "name": "",
          "type": "string"
        }
      ],
      "stateMutability": "view",
      "type": "function"
    },
    {
      "inputs": [],
      "name": "totalSupply",
      "outputs": [
        {
          "internalType": "uint256",
          "name": "",
          "type": "uint256"
        }
      ],
      "stateMutability": "view",
      "type": "function"
    },
    {
      "inputs": [
        {
          "internalType": "address",
          "name": "from",
          "type": "address"
        },
        {
          "internalType": "address",
          "name": "to",
          "type": "address"
        },
        {
          "internalType": "uint256",
          "name": "tokenId",
          "type": "uint256"
        }
      ],
      "name": "transferFrom",
      "outputs": [],
      "stateMutability": "nonpayable",
      "type": "function"
    },
    {
      "inputs": [
        {
          "internalType": "address",
          "name": "newOwner",
          "type": "address"
        }
      ],
      "name": "transferOwnership",
      "outputs": [],
      "stateMutability": "nonpayable",
      "type": "function"
    },
    {
      "inputs": [
        {
          "internalType": "string",
          "name": "_imageUrl",
          "type": "string"
        },
        {
          "internalType": "string",
          "name": "_animationUrl",
          "type": "string"
        }
      ],
      "name": "updateEditionURLs",
      "outputs": [],
      "stateMutability": "nonpayable",
      "type": "function"
    },
    {
      "inputs": [],
      "name": "withdraw",
      "outputs": [],
      "stateMutability": "nonpayable",
      "type": "function"
    }
  ],
  "bytecode": "0x60a06040523480156200001157600080fd5b5060405162002a5838038062002a5883398101604081905262000034916200004a565b60601b6001600160601b0319166080526200007c565b6000602082840312156200005d57600080fd5b81516001600160a01b03811681146200007557600080fd5b9392505050565b60805160601c6129bd6200009b600039600061122801526129bd6000f3fe6080604052600436106101cf5760003560e01c806364edfbf0116100f8578063b88d4fde11610090578063b88d4fde14610512578063c21cac1e14610532578063c87b56dd14610552578063e444bfcc14610572578063e985e9c514610592578063f2fde38b146105b2578063f4ed0f46146105d2578063f51f96dd146105e8578063fd0d0126146105fe57600080fd5b806364edfbf01461044157806370a0823114610449578063715018a6146104695780637284e4161461047e5780638da5cb5b1461049357806395d89b41146104a8578063a22cb465146104bd578063a66ff0af146104dd578063aba83150146104fd57600080fd5b806328c5440f1161016b57806328c5440f1461031d57806329ec16dd146103425780632a55205a14610362578063397b5b24146103a15780633ccfd60b146103b657806342842e0e146103cb57806342966c68146103eb57806351605d801461040b5780636352211e1461042157600080fd5b806301ffc9a7146101d457806306fdde0314610209578063081812fc1461022b578063095ea7b3146102635780630b65b6e7146102855780630f6a9349146102a857806318160ddd146102c85780631919fed7146102dd57806323b872dd146102fd575b600080fd5b3480156101e057600080fd5b506101f46101ef36600461237a565b610614565b60405190151581526020015b60405180910390f35b34801561021557600080fd5b5061021e61063f565b60405161020091906125d1565b34801561023757600080fd5b5061024b61024636600461248d565b6106d1565b6040516001600160a01b039091168152602001610200565b34801561026f57600080fd5b5061028361027e36600461229d565b61075e565b005b34801561029157600080fd5b5061029a61086f565b604051908152602001610200565b3480156102b457600080fd5b5061029a6102c33660046122c7565b6108a3565b3480156102d457600080fd5b5061029a6108d2565b3480156102e957600080fd5b506102836102f836600461248d565b6108df565b34801561030957600080fd5b5061028361031836600461208f565b610949565b34801561032957600080fd5b5061033261097b565b60405161020094939291906125e4565b34801561034e57600080fd5b5061028361035d366004612146565b610ab3565b34801561036e57600080fd5b5061038261037d3660046124a6565b610b0d565b604080516001600160a01b039093168352602083019190915201610200565b3480156103ad57600080fd5b5061021e610b6a565b3480156103c257600080fd5b50610283610bf8565b3480156103d757600080fd5b506102836103e636600461208f565b610c6d565b3480156103f757600080fd5b5061028361040636600461248d565b610c88565b34801561041757600080fd5b5061029a60cd5481565b34801561042d57600080fd5b5061024b61043c36600461248d565b610cd8565b61029a610d4f565b34801561045557600080fd5b5061029a610464366004612041565b610e69565b34801561047557600080fd5b50610283610ef0565b34801561048a57600080fd5b5061021e610f29565b34801561049f57600080fd5b5061024b610f36565b3480156104b457600080fd5b5061021e610f4a565b3480156104c957600080fd5b506102836104d8366004612146565b610f59565b3480156104e957600080fd5b5061029a6104f8366004612041565b61101a565b34801561050957600080fd5b5061021e6110a6565b34801561051e57600080fd5b5061028361052d3660046120cb565b6110b3565b34801561053e57600080fd5b5061028361054d366004612182565b6110eb565b34801561055e57600080fd5b5061021e61056d36600461248d565b6111e4565b34801561057e57600080fd5b5061028361058d36600461242a565b6112dc565b34801561059e57600080fd5b506101f46105ad36600461205c565b611332565b3480156105be57600080fd5b506102836105cd366004612041565b611360565b3480156105de57600080fd5b5061029a60ce5481565b3480156105f457600080fd5b5061029a60d25481565b34801561060a57600080fd5b5061029a60cb5481565b600063152a902d60e11b6001600160e01b0319831614806106395750610639826113fd565b92915050565b60606065805461064e906128d4565b80601f016020809104026020016040519081016040528092919081815260200182805461067a906128d4565b80156106c75780601f1061069c576101008083540402835291602001916106c7565b820191906000526020600020905b8154815290600101906020018083116106aa57829003601f168201915b5050505050905090565b60006106dc8261144d565b6107425760405162461bcd60e51b815260206004820152602c60248201527f4552433732313a20617070726f76656420717565727920666f72206e6f6e657860448201526b34b9ba32b73a103a37b5b2b760a11b60648201526084015b60405180910390fd5b506000908152606960205260409020546001600160a01b031690565b600061076982610cd8565b9050806001600160a01b0316836001600160a01b031614156107d75760405162461bcd60e51b815260206004820152602160248201527f4552433732313a20617070726f76616c20746f2063757272656e74206f776e656044820152603960f91b6064820152608401610739565b336001600160a01b03821614806107f357506107f38133611332565b6108605760405162461bcd60e51b815260206004820152603860248201527f4552433732313a20617070726f76652063616c6c6572206973206e6f74206f776044820152771b995c881b9bdc88185c1c1c9bdd995908199bdc88185b1b60421b6064820152608401610739565b61086a838361146a565b505050565b600060ce5460001415610883575060001990565b60cf5460ce54610894906001612838565b61089e9190612891565b905090565b60006108ad6114d8565b6108c95760405162461bcd60e51b815260040161073990612759565b61063982611547565b6000600161089460cf5490565b336108e8610f36565b6001600160a01b03161461090e5760405162461bcd60e51b815260040161073990612724565b60d28190556040518181527fa6dc15bdb68da224c66db4b3838d9a2b205138e8cff6774e57d0af91e196d6229060200160405180910390a150565b610954335b82611628565b6109705760405162461bcd60e51b815260040161073990612790565b61086a8383836116ea565b606060006060600060cc60cd5460ca60cb54838054610999906128d4565b80601f01602080910402602001604051908101604052809291908181526020018280546109c5906128d4565b8015610a125780601f106109e757610100808354040283529160200191610a12565b820191906000526020600020905b8154815290600101906020018083116109f557829003601f168201915b50505050509350818054610a25906128d4565b80601f0160208091040260200160405190810160405280929190818152602001828054610a51906128d4565b8015610a9e5780601f10610a7357610100808354040283529160200191610a9e565b820191906000526020600020905b815481529060010190602001808311610a8157829003601f168201915b50505050509150935093509350935090919293565b33610abc610f36565b6001600160a01b031614610ae25760405162461bcd60e51b815260040161073990612724565b6001600160a01b0391909116600090815260d160205260409020805460ff1916911515919091179055565b60008080610b19610f36565b6001600160a01b03161415610b3b57610b30610f36565b600091509150610b63565b610b43610f36565b61271060d05485610b549190612872565b610b5e9190612850565b915091505b9250929050565b60ca8054610b77906128d4565b80601f0160208091040260200160405190810160405280929190818152602001828054610ba3906128d4565b8015610bf05780601f10610bc557610100808354040283529160200191610bf0565b820191906000526020600020905b815481529060010190602001808311610bd357829003601f168201915b505050505081565b33610c01610f36565b6001600160a01b031614610c275760405162461bcd60e51b815260040161073990612724565b6040514781527f4a37b25aab49761ecf63117fe82b98d750917451133cf797507bc9fb5b96044a9060200160405180910390a1610c6b610c65610f36565b47611878565b565b61086a838383604051806020016040528060008152506110b3565b610c913361094e565b610ccc5760405162461bcd60e51b815260206004820152600c60248201526b139bdd08185c1c1c9bdd995960a21b6044820152606401610739565b610cd581611991565b50565b6000818152606760205260408120546001600160a01b0316806106395760405162461bcd60e51b815260206004820152602960248201527f4552433732313a206f776e657220717565727920666f72206e6f6e657869737460448201526832b73a103a37b5b2b760b91b6064820152608401610739565b60008060d25411610d915760405162461bcd60e51b815260206004820152600c60248201526b4e6f7420666f722073616c6560a01b6044820152606401610739565b60d2543414610dd05760405162461bcd60e51b815260206004820152600b60248201526a57726f6e6720707269636560a81b6044820152606401610739565b604080516001808252818301909252600091602080830190803683370190505090503381600081518110610e0657610e06612925565b6001600160a01b0390921660209283029190910182015260d2546040805191825233928201929092527f60a6c75698fadb72223808131f9f9bb9db3afa32122db6d94fb8fc985a504baa910160405180910390a1610e6381611547565b91505090565b60006001600160a01b038216610ed45760405162461bcd60e51b815260206004820152602a60248201527f4552433732313a2062616c616e636520717565727920666f7220746865207a65604482015269726f206164647265737360b01b6064820152608401610739565b506001600160a01b031660009081526068602052604090205490565b33610ef9610f36565b6001600160a01b031614610f1f5760405162461bcd60e51b815260040161073990612724565b610c6b6000611a1a565b60c98054610b77906128d4565b600061089e6097546001600160a01b031690565b60606066805461064e906128d4565b6001600160a01b038216331415610fae5760405162461bcd60e51b815260206004820152601960248201527822a9219b99189d1030b8383937bb32903a379031b0b63632b960391b6044820152606401610739565b336000818152606a602090815260408083206001600160a01b03871680855290835292819020805460ff191686151590811790915590519081529192917f17307eab39ab6107e8899845ad3d59bd9653f200f220920489ca2b5937696c31910160405180910390a35050565b60006110246114d8565b6110405760405162461bcd60e51b815260040161073990612759565b60408051600180825281830190925260009160208083019080368337019050509050828160008151811061107657611076612925565b60200260200101906001600160a01b031690816001600160a01b03168152505061109f81611547565b9392505050565b60cc8054610b77906128d4565b6110bd3383611628565b6110d95760405162461bcd60e51b815260040161073990612790565b6110e584848484611a6c565b50505050565b600054610100900460ff1680611104575060005460ff16155b6111205760405162461bcd60e51b8152600401610739906126d6565b600054610100900460ff16158015611142576000805461ffff19166101011790555b61114c8b8b611a9f565b611154611b26565b61115d826108df565b6111668c611360565b88516111799060c99060208c0190611f2e565b50875161118d9060ca9060208b0190611f2e565b5060cb87905585516111a69060cc906020890190611f2e565b5060cd85905560ce84905560d08390556111c460cf80546001019055565b80156111d6576000805461ff00191690555b505050505050505050505050565b60606111ef8261144d565b6112265760405162461bcd60e51b81526020600482015260086024820152672737903a37b5b2b760c11b6044820152606401610739565b7f00000000000000000000000000000000000000000000000000000000000000006001600160a01b031663df30dba061125d61063f565b60c960cc60ca8760ce546040518763ffffffff1660e01b815260040161128896959493929190612621565b60006040518083038186803b1580156112a057600080fd5b505afa1580156112b4573d6000803e3d6000fd5b505050506040513d6000823e601f3d908101601f1916820160405261063991908101906123b4565b336112e5610f36565b6001600160a01b03161461130b5760405162461bcd60e51b815260040161073990612724565b815161131e9060cc906020850190611f2e565b50805161086a9060ca906020840190611f2e565b6001600160a01b039182166000908152606a6020908152604080832093909416825291909152205460ff1690565b33611369610f36565b6001600160a01b03161461138f5760405162461bcd60e51b815260040161073990612724565b6001600160a01b0381166113f45760405162461bcd60e51b815260206004820152602660248201527f4f776e61626c653a206e6577206f776e657220697320746865207a65726f206160448201526564647265737360d01b6064820152608401610739565b610cd581611a1a565b60006001600160e01b031982166380ac58cd60e01b148061142e57506001600160e01b03198216635b5e139f60e01b145b8061063957506301ffc9a760e01b6001600160e01b0319831614610639565b6000908152606760205260409020546001600160a01b0316151590565b600081815260696020526040902080546001600160a01b0319166001600160a01b038416908117909155819061149f82610cd8565b6001600160a01b03167f8c5be1e5ebec7d5bd14f71427d1e84f3dd0314c0f7b2291e5b200ac8c7c3b92560405160405180910390a45050565b6000336114e3610f36565b6001600160a01b031614156114f85750600190565b6000805260d16020527efa5413e7b01fc543d01f0911de573ace463b956369df4472f39030e8d98b775460ff16156115305750600190565b5033600090815260d1602052604090205460ff1690565b60008061155360cf5490565b9050600060018451836115669190612838565b6115709190612891565b905060ce5460001480611585575060ce548111155b6115bc5760405162461bcd60e51b815260206004820152600860248201526714dbdb19081bdd5d60c21b6044820152606401610739565b806115c660cf5490565b1161161c5761160984836115d960cf5490565b6115e39190612891565b815181106115f3576115f3612925565b602002602001015161160460cf5490565b611ba1565b61161760cf80546001019055565b6115bc565b60cf545b949350505050565b60006116338261144d565b6116945760405162461bcd60e51b815260206004820152602c60248201527f4552433732313a206f70657261746f7220717565727920666f72206e6f6e657860448201526b34b9ba32b73a103a37b5b2b760a11b6064820152608401610739565b600061169f83610cd8565b9050806001600160a01b0316846001600160a01b031614806116da5750836001600160a01b03166116cf846106d1565b6001600160a01b0316145b8061162057506116208185611332565b826001600160a01b03166116fd82610cd8565b6001600160a01b0316146117655760405162461bcd60e51b815260206004820152602960248201527f4552433732313a207472616e73666572206f6620746f6b656e2074686174206960448201526839903737ba1037bbb760b91b6064820152608401610739565b6001600160a01b0382166117c75760405162461bcd60e51b8152602060048201526024808201527f4552433732313a207472616e7366657220746f20746865207a65726f206164646044820152637265737360e01b6064820152608401610739565b6117d260008261146a565b6001600160a01b03831660009081526068602052604081208054600192906117fb908490612891565b90915550506001600160a01b0382166000908152606860205260408120805460019290611829908490612838565b909155505060008181526067602052604080822080546001600160a01b0319166001600160a01b03868116918217909255915184939187169160008051602061296883398151915291a4505050565b804710156118c85760405162461bcd60e51b815260206004820152601d60248201527f416464726573733a20696e73756666696369656e742062616c616e63650000006044820152606401610739565b6000826001600160a01b03168260405160006040518083038185875af1925050503d8060008114611915576040519150601f19603f3d011682016040523d82523d6000602084013e61191a565b606091505b505090508061086a5760405162461bcd60e51b815260206004820152603a60248201527f416464726573733a20756e61626c6520746f2073656e642076616c75652c207260448201527f6563697069656e74206d617920686176652072657665727465640000000000006064820152608401610739565b600061199c82610cd8565b90506119a960008361146a565b6001600160a01b03811660009081526068602052604081208054600192906119d2908490612891565b909155505060008281526067602052604080822080546001600160a01b0319169055518391906001600160a01b03841690600080516020612968833981519152908390a45050565b609780546001600160a01b038381166001600160a01b0319831681179093556040519116919082907f8be0079c531659141344cd1fd0a4f28419497f9722a3daafe3b4186f6b6457e090600090a35050565b611a778484846116ea565b611a8384848484611cc2565b6110e55760405162461bcd60e51b815260040161073990612684565b600054610100900460ff1680611ab8575060005460ff16155b611ad45760405162461bcd60e51b8152600401610739906126d6565b600054610100900460ff16158015611af6576000805461ffff19166101011790555b611afe611dcf565b611b06611dcf565b611b108383611e39565b801561086a576000805461ff0019169055505050565b600054610100900460ff1680611b3f575060005460ff16155b611b5b5760405162461bcd60e51b8152600401610739906126d6565b600054610100900460ff16158015611b7d576000805461ffff19166101011790555b611b85611dcf565b611b8d611ece565b8015610cd5576000805461ff001916905550565b6001600160a01b038216611bf75760405162461bcd60e51b815260206004820181905260248201527f4552433732313a206d696e7420746f20746865207a65726f20616464726573736044820152606401610739565b611c008161144d565b15611c4d5760405162461bcd60e51b815260206004820152601c60248201527f4552433732313a20746f6b656e20616c7265616479206d696e746564000000006044820152606401610739565b6001600160a01b0382166000908152606860205260408120805460019290611c76908490612838565b909155505060008181526067602052604080822080546001600160a01b0319166001600160a01b0386169081179091559051839290600080516020612968833981519152908290a45050565b60006001600160a01b0384163b15611dc457604051630a85bd0160e11b81526001600160a01b0385169063150b7a0290611d06903390899088908890600401612594565b602060405180830381600087803b158015611d2057600080fd5b505af1925050508015611d50575060408051601f3d908101601f19168201909252611d4d91810190612397565b60015b611daa573d808015611d7e576040519150601f19603f3d011682016040523d82523d6000602084013e611d83565b606091505b508051611da25760405162461bcd60e51b815260040161073990612684565b805181602001fd5b6001600160e01b031916630a85bd0160e11b149050611620565b506001949350505050565b600054610100900460ff1680611de8575060005460ff16155b611e045760405162461bcd60e51b8152600401610739906126d6565b600054610100900460ff16158015611b8d576000805461ffff19166101011790558015610cd5576000805461ff001916905550565b600054610100900460ff1680611e52575060005460ff16155b611e6e5760405162461bcd60e51b8152600401610739906126d6565b600054610100900460ff16158015611e90576000805461ffff19166101011790555b8251611ea3906065906020860190611f2e565b508151611eb7906066906020850190611f2e565b50801561086a576000805461ff0019169055505050565b600054610100900460ff1680611ee7575060005460ff16155b611f035760405162461bcd60e51b8152600401610739906126d6565b600054610100900460ff16158015611f25576000805461ffff19166101011790555b611b8d33611a1a565b828054611f3a906128d4565b90600052602060002090601f016020900481019282611f5c5760008555611fa2565b82601f10611f7557805160ff1916838001178555611fa2565b82800160010185558215611fa2579182015b82811115611fa2578251825591602001919060010190611f87565b50611fae929150611fb2565b5090565b5b80821115611fae5760008155600101611fb3565b6000611fda611fd584612811565b6127e1565b9050828152838383011115611fee57600080fd5b828260208301376000602084830101529392505050565b80356001600160a01b038116811461201c57600080fd5b919050565b600082601f83011261203257600080fd5b61109f83833560208501611fc7565b60006020828403121561205357600080fd5b61109f82612005565b6000806040838503121561206f57600080fd5b61207883612005565b915061208660208401612005565b90509250929050565b6000806000606084860312156120a457600080fd5b6120ad84612005565b92506120bb60208501612005565b9150604084013590509250925092565b600080600080608085870312156120e157600080fd5b6120ea85612005565b93506120f860208601612005565b92506040850135915060608501356001600160401b0381111561211a57600080fd5b8501601f8101871361212b57600080fd5b61213a87823560208401611fc7565b91505092959194509250565b6000806040838503121561215957600080fd5b61216283612005565b91506020830135801515811461217757600080fd5b809150509250929050565b60008060008060008060008060008060006101608c8e0312156121a457600080fd5b6121ad8c612005565b9a506001600160401b038060208e013511156121c857600080fd5b6121d88e60208f01358f01612021565b9a508060408e013511156121eb57600080fd5b6121fb8e60408f01358f01612021565b99508060608e0135111561220e57600080fd5b61221e8e60608f01358f01612021565b98508060808e0135111561223157600080fd5b6122418e60808f01358f01612021565b975060a08d013596508060c08e0135111561225b57600080fd5b5061226c8d60c08e01358e01612021565b945060e08c013593506101008c013592506101208c013591506101408c013590509295989b509295989b9093969950565b600080604083850312156122b057600080fd5b6122b983612005565b946020939093013593505050565b600060208083850312156122da57600080fd5b82356001600160401b03808211156122f157600080fd5b818501915085601f83011261230557600080fd5b8135818111156123175761231761293b565b8060051b91506123288483016127e1565b8181528481019084860184860187018a101561234357600080fd5b600095505b8386101561236d5761235981612005565b835260019590950194918601918601612348565b5098975050505050505050565b60006020828403121561238c57600080fd5b813561109f81612951565b6000602082840312156123a957600080fd5b815161109f81612951565b6000602082840312156123c657600080fd5b81516001600160401b038111156123dc57600080fd5b8201601f810184136123ed57600080fd5b80516123fb611fd582612811565b81815285602083850101111561241057600080fd5b6124218260208301602086016128a8565b95945050505050565b6000806040838503121561243d57600080fd5b82356001600160401b038082111561245457600080fd5b61246086838701612021565b9350602085013591508082111561247657600080fd5b5061248385828601612021565b9150509250929050565b60006020828403121561249f57600080fd5b5035919050565b600080604083850312156124b957600080fd5b50508035926020909101359150565b600081518084526124e08160208601602086016128a8565b601f01601f19169290920160200192915050565b8054600090600181811c908083168061250e57607f831692505b602080841082141561253057634e487b7160e01b600052602260045260246000fd5b8388526020880182801561254b576001811461255c57612587565b60ff19871682528282019750612587565b60008981526020902060005b8781101561258157815484820152908601908401612568565b83019850505b5050505050505092915050565b6001600160a01b03858116825284166020820152604081018390526080606082018190526000906125c7908301846124c8565b9695505050505050565b60208152600061109f60208301846124c8565b6080815260006125f760808301876124c8565b856020840152828103604084015261260f81866124c8565b91505082606083015295945050505050565b60c08152600061263460c08301896124c8565b828103602084015261264681896124f4565b9050828103604084015261265a81886124f4565b9050828103606084015261266e81876124f4565b6080840195909552505060a00152949350505050565b60208082526032908201527f4552433732313a207472616e7366657220746f206e6f6e20455243373231526560408201527131b2b4bb32b91034b6b83632b6b2b73a32b960711b606082015260800190565b6020808252602e908201527f496e697469616c697a61626c653a20636f6e747261637420697320616c72656160408201526d191e481a5b9a5d1a585b1a5e995960921b606082015260800190565b6020808252818101527f4f776e61626c653a2063616c6c6572206973206e6f7420746865206f776e6572604082015260600190565b6020808252601d908201527f4e6565647320746f20626520616e20616c6c6f776564206d696e746572000000604082015260600190565b60208082526031908201527f4552433732313a207472616e736665722063616c6c6572206973206e6f74206f6040820152701ddb995c881b9bdc88185c1c1c9bdd9959607a1b606082015260800190565b604051601f8201601f191681016001600160401b03811182821017156128095761280961293b565b604052919050565b60006001600160401b0382111561282a5761282a61293b565b50601f01601f191660200190565b6000821982111561284b5761284b61290f565b500190565b60008261286d57634e487b7160e01b600052601260045260246000fd5b500490565b600081600019048311821515161561288c5761288c61290f565b500290565b6000828210156128a3576128a361290f565b500390565b60005b838110156128c35781810151838201526020016128ab565b838111156110e55750506000910152565b600181811c908216806128e857607f821691505b6020821081141561290957634e487b7160e01b600052602260045260246000fd5b50919050565b634e487b7160e01b600052601160045260246000fd5b634e487b7160e01b600052603260045260246000fd5b634e487b7160e01b600052604160045260246000fd5b6001600160e01b031981168114610cd557600080fdfeddf252ad1be2c89b69c2b068fc378daa952ba7f163c4a11628f55a4df523b3efa2646970667358221220ef33602525618e2950a1c707395442617f7aa00d54e210246c7065ec3f939c3264736f6c63430008060033",
  "linkReferences": {},
  "deployedLinkReferences": {}
}